:0200000400A258
:108300006F004000930200007390023A9302000055
:108310007390123A930200007390223A9302000085
:108320007390323A930200007390927D97D2FDFFD2
:108330009382827D13030500032E030023A0C20154
:10834000979200009382C219938212007390523068
:10835000735000307350403097C100009381414604
:1083600017D1FDFF1301019A97B2FDFF938282D9C5
:1083700017D3FDFF13030319638C6200B7B3BEEF7D
:108380009383E3DD23A0720093824200E3CC62FE7C
:108390009300000013020000130400009304000087
:1083A000130500009305000013060000930600006B
:1083B0001307000093070000130800009308000053
:1083C0001309000093090000130A0000930A00003B
:1083D000130B0000930B0000130C0000930C000023
:1083E000130D0000930D0000130E0000930E00000B
:1083F000130F0000930F000097D2FDFF93828210AD
:1084000017D3FDFF13034370638A620093030000D8
:1084100023A0720093824200E3CC62FE6F00D0255D
:10842000E013A30004D2A20004D2A20004D2A2004E
:1084300004D2A20004D2A20004D2A20004D2A2005C
:1084400004D2A20004D2A20004D2A20004D2A2004C
:1084500018D2A20004D2A20004D2A20004D2A20028
:1084600004D2A20004D2A20004D2A20004D2A2002C
:1084700004D2A20004D2A20004D2A20004D2A2001C
:1084800004D2A20004D2A200E0CDA200E0CDA2005E
:10849000E0CDA200E0CDA200E0CDA200E0CDA200A0
:1084A000E0CDA200E0CDA200E0CDA200E0CDA20090
:1084B000E0CDA200E0CDA200E0CDA200E0CDA20080
:1084C000E0CDA200E0CDA200E0CDA200E0CDA20070
:1084D000E0CDA200E0CDA200E0CDA200E0CDA20060
:1084E000E0CDA200E0CDA200E0CDA200E0CDA20050
:1084F000E0CDA200E0CDA200E0CDA200E0CDA20040
:10850000E0CDA200E0CDA200E0CDA200E0CDA2002F
:10851000E0CDA200E0CDA200E0CDA200E0CDA2001F
:10852000E0CDA200E0CDA200E0CDA200E0CDA2000F
:10853000E0CDA200E0CDA200E0CDA200E0CDA200FF
:08854000E0CDA200E0CDA20095
:108550008280110422C0ED3FD24273901234825DBA
:10856000125DA25C325CC25B525BE25A725A86496F
:108570001649A6443644C64F564FE64E764E8658A8
:108580001658A6573657C6565656E65576558A4358
:108590001A43AA42BA40496173002030014739A00A
:1085A0001881380021202245B2451481B6883288CE
:1085B000AA872E8EDDEE63F1C512C166636AD61CF2
:1085C000B70600016365D63A13538601E14897C6A2
:1085D000000083A6269E9A96942213030002B69862
:1085E00033031341630C0300B3956500B3581501C1
:1085F0003318660033EEB800B3176500935E0801C8
:10860000335FDE0313160801418293D60701B37569
:10861000DE03B30FE6039BA6B62063FAF601C2960B
:108620009305FFFF63E4060163E5F6372E8FB385FC
:10863000F64133D5D50393960701C182B3F5D5032F
:108640003306A6029BA7B62063FAC700C29793061B
:10865000F5FF63E4070163EBC7323685918F1B2575
:10866000E521814511C7B3D767001CC3232207004A
:10867000828063F9D500630F071208C34CC301451C
:1086800081458280C16763EDF60EB707000163EA9A
:10869000F62C93D88601614897C7000083A787917D
:1086A000C69703C30700930E00024293B38E6E4039
:1086B00063950E1863E4B6006363C52E3306C540A8
:1086C0003335C500958D338EA540054581454DD385
:1086D00010C32322C701828001E6854633D8C60233
:1086E000C1666360D80CB70600016368D8261356CC
:1086F0008801E14897C6000083A6C68BB2969022F7
:108700001303000246963303C3406318030A931E03
:108710000801B3860541135F080193DE0E0185450C
:1087200093D8070133DEE603B3F6E6033306DE0330
:108730009BA6D82063FAC600C2961305FEFF63E429
:10874000060163EBC6242A8E3386C6403355E60302
:1087500093960701C1823376E603B308D5039BA73E
:10876000C62063FA1701C2979306F5FF63E4070179
:1087700063EB17213685B38717411B25C521DDB56E
:108780009307F00F63F3D71E93D88600214829B7CB
:1087900032839306F00FE3FCC6E213538600A14830
:1087A0003DB542869306F00FE3F606F513568800B2
:1087B000A14889B781450145828033186800B3D844
:1087C000C500135F0801B3DFE803931E0801B395EA
:1087D00065003356C50093DE0E014D8E135E060113
:1087E000B3176500B3F8E803B385FE031B251E210C
:1087F000637BB50042959386FFFF6364051963723E
:10880000B518F91F42950D8DB358E503219E3375B8
:10881000E503B3861E039B25A62063FBD500C29506
:108820001386F8FF63EB051563F9D514F918C295A3
:10883000B386D5409BA5F821E5B533586600B396BD
:10884000D601B366D800B3D7650013DE0601B3DFE7
:10885000C7039398060193D8080133586500331F66
:10886000D501B395D501B365B80013D8050133160A
:10887000D601B3F7C7033385F8039B27F82063FBC2
:10888000A700B6971388FFFF63EBD70E63F9A70E17
:10889000F91FB697898F33D5C703A19DB3F7C703D7
:1088A000B388A8029BA5F52063FB1501B695930735
:1088B000F5FF63E2D50C63F0150D7915B695C1632C
:1088C0001B25F5219387F3FF3378F500135E05012F
:1088D000F18F935F0601B302FE02B3881541B30521
:1088E000F8033308F80296959B850561330EFE0365
:1088F00063F355001E9EC167FD17B3FFF500B37704
:10890000F8001B08BE609B87F72163ED08036389AD
:1089100008038145E30E07D4B307FF40333FFF0050
:10892000B3880841B388E84133936800B3D7D701CF
:10893000B367F300B3D8D8011CC323221701828088
:10894000E379FFFC3386C740B3B7C7003308D8408C
:108950003308F8407D15B2876DBF13560801C14832
:1089600051BB93D80601414805BB014835B31353A9
:108970000601C148A9B93E8599B7B28855BDC28FD5
:1089800011BFB68F49B57915C297F5B37915C2975E
:10899000F1B1791FC29661B9791EC29675B32A8664
:1089A00001452DB359CA93F7F50F1CA13307C50034
:1089B000A30FF7FEBB6126031CB13CA1230FF7FEFA
:1089C000A30EF7FEBB6D16073CB1230EF7FEA146C2
:1089D00063F5C606B307A0408D8B3307F5001D8EE7
:1089E00093F5F50F9F0701010101B385F502719A17
:1089F000B307C7000CC323AEB7FE63F0C6044CC375
:108A00000CC723AAB7FE23ACB7FE3B6C06194CC7B4
:108A10000CCB4CCB0CCF23A2B7FE23A4B7FE23A6CE
:108A2000B7FE23A8B7FE93774700E107BA97FD4644
:108A300032973306F74063E3C60082808CC3CCC311
:108A40008CC7CCC78CCBCCCB8CCFCCCF9387070239
:108A5000CDB7AA8713F7350019C36319061613F8A3
:108A600037003D47630E0818BB6A162094219841D1
:108A7000BB0778028D486305182394A394317516BB
:108A80008D0594B383C6F5FF8D07414EA38FD7FEA6
:108A900003A3150083A855004116131883001B2754
:108AA000E87003A8950098C3939688001317880070
:108AB0001B27177198C703A7D5009BA66670D4C360
:108AC000931687009BA60671D4C7C105C107E36151
:108AD000CEFC1377060151C39821C107C105238835
:108AE000E7FE03C715FFA388E7FE03C725FF238919
:108AF000E7FE03C735FFA389E7FE03C745FF238AC7
:108B0000E7FE03C755FFA38AE7FE03C765FF238B74
:108B1000E7FE03C775FFA38BE7FE03C785FF238C22
:108B2000E7FE03C795FFA38CE7FE03C7A5FF238DD0
:108B3000E7FE03C7B5FFA38DE7FE03C7C5FF238E7E
:108B4000E7FE03C7D5FFA38EE7FE03C7E5FF238F2C
:108B5000E7FE03C7F5FFA38FE7FE1377860031C357
:108B60009821A107A105238CE7FE03C795FFA38CDD
:108B7000E7FE03C7A5FF238DE7FE03C7B5FFA38D5F
:108B8000E7FE03C7C5FF238EE7FE03C7D5FFA38E0D
:108B9000E7FE03C7E5FF238FE7FE03C7F5FFA38FBB
:108BA000E7FE1377460059C3982191079105238E5C
:108BB000E7FE03C7D5FFA38EE7FE03C7E5FF238FBC
:108BC000E7FE03C7F5FFA38FE7FE8DA0850503C76A
:108BD000F5FF85077D16A38FE7FEADBD9441C10764
:108BE000C10523A8D7FE83A645FF411623AAD7FEB9
:108BF00083A685FF23ACD7FE83A6C5FF23AED7FE91
:108C0000E36EC7FC1377860011CB9841A107A1053D
:108C100023ACE7FE03A7C5FF23AEE7FE13774600AC
:108C200011C798419107910523AEE7FE13772600FF
:108C300011CB982189078905238FE7FE03C7F5FF2C
:108C4000A38FE7FE058A19C2982198A3828094A376
:108C500094317916890594B3454E890703A32500FD
:108C600083A865004116131803011B27E86003A8B9
:108C7000A50098C393960801131708011B271761D5
:108C800098C703A7E5009BA66660D4C393160701A7
:108C90009BA60661D4C7C105C107E361CEFC15BD23
:108CA00094A385057D168507494E03A3350083A847
:108CB00075004116131883011B27E85003A8B5005F
:108CC00098C393968801131788011B27175198C7DB
:108CD00003A7F5009BA66650D4C3931687019BA6F5
:108CE0000651D4C7C105C107E361CEFCDDB32A96A6
:108CF000630CC5001C2198216385E7003385E7409C
:108D0000828005058505EDB701458280AA8713F7A6
:108D100037001DE39F05FFFEFEFE1F06808080805A
:108D200094433387B60093C6F6FF758F718F01CFDA
:108D3000982309C78507EDBF982301E73385A7402E
:108D400082808507E9B79107E1BF2A882E87B2871D
:108D5000630FB502F956B306D602B388A540B388AF
:108D6000C84063E31601F5B1B3C6A5008D8A6378E8
:108D7000B504A1C6AA86B697638AF600050703461E
:108D8000F7FF8506A38FC6FEC5BF81E742873A85F8
:108D9000828005070346F7FF8506FD17A38FC6FEF1
:108DA00013F636007DF20D46E377F6FC0C43F1171F
:108DB000910623AEB6FE1107C5BFAA86D5B781EED0
:108DC0002A96B386F50093753600B387E64089EDA1
:108DD0008D4663E3F602DDDBFD17B306F700902254
:108DE000B306F80090A2C5BF7D16E301D7FA83C78A
:108DF000F6FFFD161CA2C1BFF1173306F7000C42A7
:108E00003306F8000CC2F1B71880EF30105CB727BA
:108E1000004011472398E71001A001A018802A867E
:108E2000D146D1451F050055A000EF70703401C533
:108E30003705008011051480188002951080F1BF5D
:108E4000370700401C473D89C19BC98F1CC78280E2
:108E5000B707E0FF3E956F30D010B2872E86BE85F3
:108E60006F305000B2872E86BE856F3060721F054E
:108E7000201DA3006F302067588A3737004002CE8C
:108E800002D002D28327874093E787032324F74049
:108E9000EF30D02C1D45EF10B0030145EF107008E6
:108EA0009F0700C201003ED4930780103ED69F0763
:108EB000020104003ED8EF10803231462C100A85A2
:108EC000493E81450A85EF3050471F052C1DA30000
:108ED000EF30B040EF403046EF30200FEF30B021A0
:108EE0001F05481DA300EF30503F9F076E8EA20064
:108EF0003EDA9F07648EA2003EDC9F075A8EA200D6
:108F00003EDE48189F07508EA200BEC082C239378D
:108F1000B93F63080518AA851F05641DA300EF303B
:108F2000F03CEF30F027EF30702AEF30A03CAA85FC
:108F300011C51F05901DA300EF30503B9F05A41DD8
:108F4000A3001F05B01DA300EF30C00FEF301019B4
:108F5000EF10300BEF40605B2C101305100202CCB9
:108F6000EF40504509E5834781026382071493056A
:108F7000000F1F05CC1DA300EF3050376C08130500
:108F80000002EF40304319C51F05801EA300EF30DB
:108F9000D0349D3D0254B707200093890710A29951
:108FA00002DA02DC02DE82C0125903A78904B3048C
:108FB000F400938707303E949F07E196783C26990A
:108FC0006311F7181F05B41EA300EF3010319F0581
:108FD0008080A20026861945A129AA85630D051E59
:108FE0001F05C41FA300EF307030B707004088474B
:108FF0003D898D47637BF51E050599353135014562
:10900000EF30703B01452D3D714681454818593A76
:109010004818EF40B00D0DC9E2571F0733F37C4BE2
:1090200094436393E602264705E3064793D6C400BC
:10903000B183BA94378700442320D780B18023209E
:109040009782958F2320F784B7070040D85323A237
:1090500007029F075A5A5A5A6310F704EF10A07775
:109060001F058C20A300EF3050272C10094502D497
:1090700002D602D802DA02DC02DEEF40B033AA8464
:109080004C180545EF401033458D630C05181F053E
:10909000AC20A300EF307024EF10E0732285693B11
:1090A000548A1F057C1DA300EF3030239DBD280886
:1090B000EF40002962459305C0065018EF40E031AB
:1090C000AA8509C51F05EC1DA3007DB552579F0752
:1090D000AA55AA55631AF7007A479F0755AA55AAB9
:1090E0006314F700EA4799E71F05041EA300EF3059
:1090F000D01E69B51F051C1EA300EF30101EEF50D7
:10910000D021B7370080938677043727A300630206
:10911000D50293870704630EF50001CD1305C7E25E
:10912000EF30B01B1F05481EA300EF30101BE939BC
:10913000B1B51305C7E2EF30501A1F05641EA30036
:10914000EDB7B367240193F7F70F89CB4A86A6855D
:109150001F05CC1EA300EF30301B7D311F05081FFB
:10916000A300EF3090179387C9043EDCF1474C18F9
:109170003EDE414685470A852300F104D9380A8539
:10918000EF00101AAA8519C51F05201FA300EF3094
:10919000F0159D39A28541479386C9064A86014547
:1091A000EF00501EAA8519C51F05541FA300EF30FC
:1091B000F0139939CA8585463706A0000545EF00AA
:1091C000D020AA85E30505E01F05881FA300EF3026
:1091D000F0111D39EDBBA28526850D29AA85E30076
:1091E00005E21F05F41FA300FDBB9947E378F5E0F6
:1091F0000505B931EF506040AA8519C51F051C202F
:10920000A300EF30B00EDDBBEF50804619C51F053F
:109210003C20A300EF30700CD5B31F056820A300DD
:10922000D5BFF2556255EF30C053AA8511C51F0551
:10923000D020A300EF30900BB25742566255B705CD
:109240002000BE95EF300042AA8511C51F05FC2005
:10925000A300EF30B0091F052821A30025BDB726C4
:10926000A3001387061F81479386061F394883484A
:1092700007006394A802834817006390B802DB9745
:10928000F60CDC4301456380C70218801F0570217E
:10929000A300EF3090047D55148085073107E398D3
:1092A00007FD8147C5B782801881FD5705469305A4
:1092B000F1001D45A307F100EF30606101C91F05F2
:1092C000B421A300EF3070017D5514818347F10074
:1092D0000145E5FF370500800905C5BF38812A84AF
:1092E000AE8411466C00194502C6EF30405E01C9DC
:1092F0001F058021A300EF30407E7D553481B247A9
:1093000001453D8C658C7DD81F05A021A300E5B7E4
:10931000488413090102AA8436842E85930600022C
:10932000B2854A8602C402C602C802C002C202CA8C
:1093300002CC02CEEF00F06109C91F059822A300FC
:10934000EF30A079FD573E8544849307000226C480
:1093500022CA938404021304040250088A85280058
:109360003EC83EC03ECE26C64AC222CCEF00F05DCB
:10937000814771D91F05C822A300D9B73881AA84B3
:1093800041468A85054502C002C202C402C6EF30CA
:10939000005409C91F053C21A300EF3000747D541F
:1093A000228534812A844146A6850A85EFF03F94C0
:1093B00065D91F055C21A300CDB738813727A300ED
:1093C000B2849306071F2E8402C681471307071F26
:1093D00039468C226394A502DB17F70C88276C00B2
:1093E0001146EF30C04EAA87B375940015C11F0512
:1093F0008021A300EF30606E7D5534818507B10672
:10940000E399C7FC0145E1BF1387F5FFF98D850797
:10941000E5FD3246658E01EA0145E3F0B7FE1F0522
:10942000D821A300C1BF1307F6FF798E8505E5B7E4
:1094300048806309061C930700F06305F61C32841C
:109440002E89AA849535B707008089076315F50230
:109450001F058023A300EF304068B935B7070080AF
:109460008907631EF50E1F05F024A300EF30E066A8
:109470000144228544803B1805FF1F05B023A3004B
:10948000EF30A0651F04C01500801F05D424A30081
:10949000EF30A064F9BF91C49387E4FF819FBBF8CC
:1094A00007029F071455A0009C43BB8507051F05B5
:1094B000DC23A300EF3060621F04C1150080F1B708
:1094C000104081452685613B11C91F050C24A3006E
:1094D000EF30A0601F04C215008045BF9306040C46
:1094E0001306000CA2854A85253511C91F053424B1
:1094F000A300EF30805E1F04C315008079B799CCBC
:1095000010544C502685553D11C91F056024A300F9
:10951000EF30A05C1F04C415008085BF0C58485470
:10952000753B11C91F058C24A300EF30005B1F049D
:10953000C515008099BF58589F0712C8132AE31E0B
:10954000F7F0130584031D3DE30905F01F05B02462
:10955000A300EF3080581F04C61500803DB73B17AD
:1095600005FF1F052025A300EF3020571F04C0155D
:1095700000801F05F025A30021BF032604108545A8
:10958000268513090410E13911C91F054C25A300D4
:10959000EF30A0541F04C2150080E1BF93060428D9
:1095A00013060018CA85130504089D3311C91F0549
:1095B0007425A300EF3060521F04C315008055BF0F
:1095C0008DC003264901832509012685FD3311C974
:1095D0001F05A025A300EF3040501F04C4150080D4
:1095E00049BF8325C90103258901CD392A84E302B6
:1095F00005E81F05CC25A300EF30204E1F04C5153C
:10960000008085BF1F04CA150080A5B54882930756
:1096100000F06307F506ADC5AE842A841306000288
:109620008145130905100A85EFF0CFB78325441251
:10963000930600020A862685EF00B03105C11F059A
:109640000423A300EF3060491F04C71500801F05E5
:109650006023A300EF306048228544829305841282
:10966000130600020A85EFF08FE8014475D51F0547
:109670003423A300EF3060461F04C8150080C1BF2B
:109680001F04CA150080C9BF3880F3240030F37767
:1096900004303754A000930744529E2313044452CD
:1096A000A19F89EB9F071C55A0009C4381C786851D
:1096B000014582979F071855A0009C4389C786855E
:1096C0001220014582971E20A19F89EB8D8093C4B3
:1096D000140085889F072055A00084C31E2085079D
:1096E000A19F1EA01E20A19F81EB930530061305AC
:1096F000100330806F40A0320F00F00F0F00F00F0A
:10970000348038803754A000930744529E23A19F91
:1097100081EB9305F0061305100330806F40203075
:10972000130444521E208684FD17A19F1EA09F078C
:109730001855A0009C4389C786851220054582974D
:109740001E20A19F85E79F071C55A0009C4381C751
:10975000A685054582979F072055A0009C4399E365
:10976000F36704300F00F00F0F00F00F3480188003
:109770002A86B146B1451F052855A000EF70401F4D
:109780000145148038802E84E1460146E145AA84D3
:10979000EF70C025930784FF1F073455A000138581
:1097A000B401F19B71991CCBE117898F48C7A19F28
:1097B0005EA11CC79D67938747077EA123200500F4
:1097C0003480C9B7B756A00093874653DC479386C9
:1097D000465399E30145828075DDF2231D67130826
:1097E0004707630606011307C7C6E315E6FE0D0526
:1097F00071991D67219D814813064707130885004D
:109800001303C7C603DE6700DA236312CE04637551
:10981000E802098F3E9861172312E8002313C8005D
:109820001D671307C7C68CC3FAA39842CAA33A950B
:1098300088C2138587008280636BA7001D661306AC
:10984000C6C68CC3F2A39042329798C2DDB72107F7
:10985000BA97984A63EFE700E39E08F6D8465E237E
:1098600003AE0601A107B308F70063EAC801DC46AE
:109870008548FA23E30867F8E306C7F8A1BF035E4B
:109880006700631BCE0003DE68006317CE0083D839
:109890004800C6975EA3BA884687D1B718808685E8
:1098A00010800DB70DC50357E5FF9F076C6C0000D6
:1098B000631FF7009D6793874707231FF5FE1F0768
:1098C0003455A0008356C5FF5C43B6975CC3014581
:1098D0008280C9BF18804D3B014514801DB5688149
:1098E0002A84AE84EF203003EF10C021AA890149F9
:1098F000054A631699000F00F00F01456481584036
:10990000543403280400832884005C246C246834C5
:1099100013562700638746017D171B07174313560D
:10992000270013F777008347D1008D8A2306A10013
:1099300093F7070ED98F9BA7D70693F7F7079BA737
:10994000B70E42C232C4A306F10083A70900480043
:109950004104829745F5050969BF788E2A89AE8A48
:10996000B28481451306000408103AC6368A3E8444
:10997000EFF04F831306000881458810EFF08F82C7
:1099800002CE324763940A007D55748EE30E0AFEC0
:10999000B7070001E3FAF4FE3B1CF7209F07009194
:1099A00016026309F90C1F061026A300CA8522853A
:1099B000EF00A07779F913F9F403B3892441639F89
:1099C000090A930600080146930500088810EF7005
:1099D000E001CA8633863A01930500088810EF60DB
:1099E00030795DF19C11CA97130700F82380E7F8DE
:1099F000930900043B620938930900081397340067
:109A00001396B4019F0700FF00009BC7E7501B2679
:109A1000E6705D8EB707FF009BC49716458E1385D1
:109A2000C9FF9C1032CE9146700891453E95EF607B
:109A3000307439F995464E868C102285EF00606FA0
:109A400029F581452285EF00406F21F113060004BE
:109A50000C102285EF00E06E0DF993060002101045
:109A6000930500025285EF60B0703335A0003305D6
:109A7000A04021BF1F063026A3000DBF95464E868D
:109A8000D68522857D25E31205F081452285752541
:109A9000E31D05EE0146814522856525E30305F2B8
:109AA000EDB548823284AA8439462E8913052101F6
:109AB0008145EFE03FEF930700022308F100814565
:109AC0008547480022C6A308F1002309F100230BB3
:109AD000F100230CF100F9242A840DED2800912EC9
:109AE0002A841DE91246224581454D2E2A840DE126
:109AF00022456C00A1212A8401E92245CA8555210D
:109B00002A8419E192479CC0124622458145C52E00
:109B10002245992E228544828840C524E5BFF1ACB8
:109B2000388239468145AA8413052101EFE09FE779
:109B30009F070D0000033EC6930700022308F100B3
:109B400028008547A308F100230BF100230CF10046
:109B5000CD242A8415E522450146894581262A849B
:109B600011ED22456C00D92E2A8409E52245A685EF
:109B70000D292A8422450146894551262245ED2496
:109B80002285348248832E843289AA8461468145A5
:109B9000280836C63AC4EFE0FFE08947B2463ED413
:109BA0009307101022C84ACA22CE2316F1027D550F
:109BB00081CE22473B1507104146B68501457129E4
:109BC00001E50C0826855521448325A368810348B7
:109BD0000103BB184610370762016304080037070A
:109BE00062111375F51F137707E0498FB7441044CE
:109BF00046893E8A2E8423A8E4100F00F00F23A28A
:109C000004100F00F00F9F09AC55A00003A7090036
:109C10001F054C55A00016073306E5000C4241070E
:109C20002322160193E5350093F5F5DF0CC214C627
:109C300023260600C1462286C1453A95EF6050535F
:109C400003A709009F068C55A0009B86E608050720
:109C5000058B23A0E90023A2260123A4460123A605
:109C60000600B7D610449C5A13871700058B93F74C
:109C700007F0D98F9CDA0F00F00F83A70413138726
:109C80001700058B93F707F0D98F23A8F4120F0064
:109C9000F00F9F041027000037C91044C1798327B3
:109CA000090013F72700B3F73701D98F0DCF232011
:109CB000F9000F00F00FB797104403A70708C1463B
:109CC0000A863AC003A74708C14522853AC203A7BE
:109CD00087083AC483A7C7083EC6EF60704901CD24
:109CE0001305000409A80545FD146D23CDF81305DF
:109CF000400B11A07D556481B7071044414798D3AC
:109D00000F00F00FB74710441F074C55A00023A2C7
:109D1000E7120F00F00F894623A6D7120F00F00FAD
:109D200037D710441F068C55A00050D30F00F00FFA
:109D300014D70F00F00F1F0700AA008023A0E71020
:109D40000F00F00F01458280B707104423A00702DF
:109D50000F00F00F01458280188105431AC0BD3500
:109D600014819F07B055A00003A3C701630303003C
:109D700002830545828005458280FD5705C199CE45
:109D800081476394B700FD5711A82A87210503284E
:109D900085FF6317C8005C439CC281473E85828073
:109DA0008507C5B75881FD573EC619E17D555481D9
:109DB0003B930502232005000145D5BF95C1BB9B00
:109DC000F50189492E842A898144A2852685EF10D0
:109DD00000112AC6B24799C78504E39899FEF9B7DE
:109DE000A149CDB7E3F434FDB70500559BA5852007
:109DF000CD8C2320990032455DBF15C59357850151
:109E0000BB9707559357050193F7F70F054763680D
:109E1000F70093160501C18289E73BE306087D55EB
:109E20008280E36ED7FE93550501819D219D6F10C1
:109E3000C01419E17D55828038802A843755A000EE
:109E40009304455D930640020146930540021305C5
:109E5000455DEF60B03985472380F4029F075A4B78
:109E60003C2D1CC00145348028809F075A4B3C2D57
:109E70007D546313F5023755A0009307455D83C7F2
:109E80000702014491CB930640020146930540022C
:109E90001305455DEF609035228524804881FD578C
:109EA0003EC69F075A4B3C2D6319F5043754A0005A
:109EB0009307445D83C707021304445D7D5585C342
:109EC000AE8432899375F60F3B860402B2852685EF
:109ED000EF1080352AC6B2478D4599C3324544817B
:109EE0002685EF10C02B2AC6B247EDFB8547232EEF
:109EF000240144A0A300F402D5B77D55CDB79F0738
:109F00005A4B3C2D631AF5029F07D455A00003C796
:109F100007027D551DC3D8236311B702D84F631EB6
:109F2000C70003C71702014509CBA380070223AE70
:109F300007002382070082807D5582803881FD578B
:109F40003EC699E17D5534819F075A4B3C2DE31B5A
:109F5000F5FE9F04D455A00083C70402E5D72E86E2
:109F60002E84D146D14513858400EF6070202AC627
:109F7000B247E9FB50204C306820EF10A01B2AC6E6
:109F8000B24799C33245C1B713057400EF10A0243E
:109F90002AC6B247E5FB1C409CC085472381F402DA
:109FA000D5B73882FD573EC402C602C802CA02CCE9
:109FB00002CE99E17D5595A8DC41EDDF9C212E84F0
:109FC000AA843B8E07019F075A4B3C2DE394F4FE75
:109FD000B754A0009387445D03C707029384445D90
:109FE00071DB83C72702F9D73C20BB82070191CBE5
:109FF0003B91F702A308F10039A00545AD3B61F59F
:10A0000055BFA30801009C403EC61C202308F10058
:10A010005C403ECA1C443ECC5C24230EF100EF1091
:10A0200000082AC4A24799C322453482EF00B04AEF
:10A030002AC4A24785E36800EF0010532AC4A24750
:10A0400081EBD0203245A285EF1020212AC4A247FF
:10A05000EF00904CEF10400AC1BF1881FD573EC67B
:10A06000EF10C0342AC6324514814881FD573EC6E0
:10A0700093B71500B307F0403EC6B24799C33245C7
:10A080004481844DD0412E848C412A89EF1040298F
:10A090002AC6B247EDF750480C484A85EF10602AAF
:10A0A0002AC6B247E9FFBB9404030C444A85EF106B
:10A0B00080292AC6B247E1F7A6854A85EF10E02835
:10A0C0002AC6B247CDFF4C2C4A85EF10A02B2AC6DA
:10A0D000B247D5F74C444A85EF10C0312AC6B24783
:10A0E000D9FF5C3CC9DF4A85EF10002A2AC6B24777
:10A0F00079B72882FD5736C63ECE2A84EF1040221B
:10A100002ACEF247B24699C372452482F5DE2285F3
:10A11000EF1080272ACEF247C5BF1F03D42F1000AF
:10A1200002831F038A2D100002831F03AA2D100033
:10A1300002831F03B42E100002831F03282F100078
:10A1400002831F03FC30100002831F032A26100025
:10A15000028328812A8405452EC632C436C2753F43
:10A160002246B2451247B28685472E861F050091CA
:10A170001601A285EFF06FFE2A8405455D37228522
:10A1800024814880EFF00FF59F07F855A0009C232D
:10A1900081EBEFF0AFF4014481442285A685448031
:10A1A0002A89EF10D0702A844A85AE84EFF00FF32D
:10A1B000EDB72881F9372A842EC6EF105070B245CA
:10A1C0009F0740420F003337F4022A868146B38549
:10A1D000F5023305F402BA95EFE04FBC24814880C4
:10A1E000EFF04FEF1F09F955A0008347090091C711
:10A1F000EFF0CFEE014422854480AA84EF10402185
:10A200002A8409C52685EFF06FEDF5B78547230051
:10A21000F900CDBF4880EFF0EFEB9F07F955A000A4
:10A220009C2381EBEFF08FEB014481442285A685CE
:10A2300044802A89EF1080202A844A85AE84EFF07A
:10A24000EFE9EDB79F07F955A0009C23B1C3488003
:10A250002A84EF10F0679307803EB305F40233348D
:10A26000F402B384A5023304A402B3B5A5022E946C
:10A2700055373389A400B3349900A295AE94593F61
:10A28000E3EF95FE6394B400E36B25FF0145448042
:10A290007D5582809F07F955A0009C238DCB488077
:10A2A0002A84EF10F062B304A4023334A4029D3771
:10A2B0003389A400B33499002E942694A13FE3EF90
:10A2C00085FE6314B400E36B25FF014544807D5592
:10A2D00082809F074856A0005B95A74C1C4103A3B2
:10A2E000870063060300D043CC4788430283828003
:10A2F0009307C004B307F502B756A000138786641E
:10A3000093868664B305F7009041B107BA9741067A
:10A3100013870704637BE60090C15B95A64C1E255E
:10A3200023150500FD171EA582809CC1FDB738804E
:10A330001F044856A0005B14A44C04403E2405466C
:10A340008C40BE95EF10E01A2A240505219D2AA411
:10A35000DC443335F50013451500348048812A84E8
:10A360001306F100A5451F090056A00023070100B0
:10A37000A3070100DB148918EF10E0198347F100EF
:10A3800089CF5B1489184E2881C91C4091C7484465
:10A3900005468297231A040044819305E10005468F
:10A3A0002285EF102016D628DC440347E100B6973B
:10A3B00098A3CE289E288505A19DCEA863E9F50027
:10A3C0009C4081C7C84405468297239A040013061F
:10A3D000F100A5452285EF1000144DB75881FD15F9
:10A3E00093F7F50FBBFA6705B725A30093850565BD
:10A3F0009B85F5049C412A8482879F044856A000CF
:10A40000A3070100DB94A44C9E2481EB01468945FF
:10A410002285EF104010014554811306F1009D453F
:10A420002285EF10400F8347F100F5F722850137B1
:10A430006DD52285793D2285653DF9B71306F1007A
:10A44000A5451F090056A00023070100A30701002E
:10A450008149EF10400CDB1489188347F1008DC748
:10A46000DB178918CE2BC5D9F82B098B4DD7BA2B02
:10A47000E3E3E9FA984301C7C847014602975B1432
:10A480008918231A040041BF05469305E10022857F
:10A49000EF1040079C408509C20993D9090181EB5F
:10A4A0001306F100A5452285EF10E0067DB7D628FA
:10A4B000DC440347E100B69798A3CE289E28850583
:10A4C000A19DCEA8E3EEF5FC9C40C84401468297CE
:10A4D000239A0400F1B71306F100A5451F090056A1
:10A4E000A00023070100A30701008149EF10A0028B
:10A4F000DB1489188347F10085CB5B1789184E2B35
:10A50000E38B05F07C2B93F6170099E6898BE384A7
:10A5100007F03E2BE3E1F9F05B1789181C43A5D344
:10A52000484701468297A1BF05469305E100228571
:10A53000EF00507D9C408509C20993D9090181EB48
:10A540001306F100A5452285EF00F07C65B7D628FB
:10A55000DC440347E100B69798A3CE289E288505E2
:10A56000A19DCEA8E3EEF5FC9C4081C7C8440146FE
:10A570008297239A0400E9B79F070056A000DB9753
:10A58000A718DC4381C78145014582972285F933AD
:10A5900059B59F070056A000DB97A7189C47DDB769
:10A5A0004881894763E5A70ADDC103C81500930602
:10A5B000200763EE060903C8050063EA060941CADD
:10A5C00054223BF32604742263E3D7085C323BF049
:10A5D00027023759A0009307C95FAA979C23AA8432
:10A5E0001309C95F0144B5E33A8432C62EC4EF10A3
:10A5F000302435C0184025C35C40B1CF9305C0045A
:10A60000B385B4029F070056A000DB979718D8C700
:10A610005840B24622469AAB9F074856A00026856E
:10A620001387C5003E97AE9798C3D8C39F05DCA398
:10A63000A2001147EF0050682A8401E92699854756
:10A6400026852300F900EF10B01F228544813704CE
:10A6500000800504DDBF1F0444100080FDB7788131
:10A66000A30701003B771503A1CD39CA9F07FC550D
:10A67000A000AA979C23AA84A1CBAE893289EF10AF
:10A680007022AA8A4E994E8A33043A4163182A01ED
:10A69000D6852685EF105021228574811306F1009E
:10A6A0009D452685EF0030678347F100E5F3D285AD
:10A6B00013041A0005462685EF00B063228AE9B725
:10A6C000370400800504C9BF1F0440100080E9B7AB
:10A6D0005880AA89EF101021EF10D021EFF08F9F42
:10A6E000AA84EF10E0261C411F092C57A00023204C
:10A6F000A900829719C52A842685EFF02F9E22850E
:10A700005480832709004E859C4782972A8426859A
:10A71000EFF0CF9C6DF49F073157A000054798A339
:10A72000F9BF9F073157A0009C239DCB48808544EB
:10A73000FD5763E5A4022A84EFF0CF999F072C57B9
:10A74000A0009C432A8922859C4B82974A85EFF082
:10A75000EF989F073057A00084A381473E8544802F
:10A76000FD573E8582809F073157A0009C2399E3C7
:10A770007D5582801881EFF0EF959F072C57A00040
:10A780009C432AC6DC4B82973245EFF02F959F07FA
:10A790003057A0002380070001451481B757A0005F
:10A7A00003C717731DC72880138417739F0730577B
:10A7B000A0009C2391C3453F9F072C57A0009C43BA
:10A7C00099C3DC438297EF10B012014523000400C7
:10A7D0002480014582809F073057A0009C2399E385
:10A7E0007D5582801881EFF0EF8E9F072C57A000D7
:10A7F0009C432AC69C4F82973245EFF02F8E01452D
:10A8000014811880EF20400BC1280323050010801D
:10A8100002836881A30701007D549307F00F63EE64
:10A82000B70205CDBB7D06082E843289AA846D202F
:10A830002A8AEFF02F8A83270A01AA899305F1005B
:10A84000228582972A8401ED8347F1004E8533D615
:10A850002741058A90A0EFF06F88228564814E859C
:10A86000EFF0CF877D54D5BF88807D5431C29307E8
:10A87000F00F63EFB702B387C500130700106369D9
:10A88000F7021DC53289AE892A8AB9202A8BEFF0DA
:10A890006F84AA8A814483270B01B3059A0033850C
:10A8A000990082972A8419C55685EFF02F837D542D
:10A8B000228584808504E3E024FF5685EFF00F8233
:10A8C000C5BF19C59F073457A00088C301458280C2
:10A8D00037050080050582809F073457A000884314
:10A8E00082809F073857A00023800700828038802D
:10A8F000AA84EF10307D2A842685EF10107D9F07F3
:10A90000403FA3009B8787049C430581219D1B85B5
:10A91000A7043480188001455522B757A00003A72B
:10A9200007749F06D43DA30094225C43014593F72E
:10A9300007F0D58F5CC39F073857A000054798A341
:10A9400014809F073857A0009C23A1C748802A8401
:10A950009307F00F63E3A704A9C1AE84493F2A8996
:10A960002285EF1030769F074057A0001B85A70473
:10A970001841C17605881C43F58F9F065A5A00007E
:10A98000D58F1CC38327090011C0A1839CA001455A
:10A9900044801F05911300808280370500800505E3
:10A9A000C5BF9F073857A0009C2399EF1F0591133F
:10A9B00000808280B30589002285613719E905048A
:10A9C000E36A94FE0145448048802A89AE840144AC
:10A9D000C5BF7D55CDBF9F073857A0009C23C1C37D
:10A9E00058802A849307F00F63EFA706B754A0009E
:10A9F0002E8993890474EF10F06C1B85A90418410B
:10AA0000C17622851C4393840474F58F9F06A5A507
:10AA10000000D58F1CC3EF10F06A1B85A9041841F4
:10AA2000130540065C4793E717005CC7EFF09F866D
:10AA30002285753D9377140091C3220923202501B7
:10AA40002285EF1030689B84A404984013054006CB
:10AA50005C47F99B5CC7EFF0FF83014554801F05FD
:10AA6000911300808280370500800505C5BF9F07D0
:10AA70003857A0009C2395C75880B2892E84AE8495
:10AA80003309B540B387844063E4370101455480FE
:10AA90008C203305990001463D3F850465D57D55E1
:10AAA000FDB71F059113008082809F07D43DA3004E
:10AAB00088C382801F05D83DA30082806347A0021F
:10AAC0000A051F07383FA3009F074057A000AA9719
:10AAD0003A951841014598C3B747A30003A7C7F3A8
:10AAE0009F073C57A00098C382807D55828019C57E
:10AAF0009F074457A00088C3014582803705008026
:10AB0000050582809F074457A000884382804880C3
:10AB100003290500BB7F09104C410025AA844A8502
:10AB20008920A2854A85E92880444A8521801D889C
:10AB3000A285392A9C444A8513D78700618BA1835B
:10AB400093F50708598CC18D21220F00F00F0145A4
:10AB50004480370500800505E5BF1F05043EA300BE
:10AB6000828001E57390053B8280BB1205017390E2
:10AB7000153B8280BB1205027390253B8280BB127D
:10AB800005037390353B8280BB1205047390453BEF
:10AB90008280BB1205057390553B8280BB1205066F
:10ABA0007390653B8280BB1205077390753B828072
:10ABB000BB1205087390853B8280BB120509739018
:10ABC000953B8280BB12050A7390A53B8280BB1225
:10ABD000050B7390B53B8280BB12050C7390C53B8F
:10ABE0008280BB12050D7390D53B8280BB12050E8F
:10ABF0007390E53B82803B12050F7390F53B82809A
:10AC00001377F50FBB790508F327807D0A07019FAD
:10AC1000BD46B396E60093C6F6FFFD8E3397E5007A
:10AC2000558FBA827390827D82807326907D9307C0
:10AC300087FF8A07819FBD46B396F60093C6F6FF4D
:10AC4000F18EB397F500D58FBE827390927D82808E
:10AC50009357250041113B8A070199C7BB8E070214
:10AC6000BB83170341018280F327003A3EC61C08CC
:10AC70003E95230EB5FEB2477390073AE5B7F3272A
:10AC8000103A3EC60D891C083E95230EB5FEB2470C
:10AC90007390173AC1BFF327203A3EC60D891C08AE
:10ACA0003E95230EB5FEB2477390273A65BFF32752
:10ACB000303A3EC60D891C083E95230EB5FEB247BC
:10ACC0007390373A45B71880EFE0DFC0EF20105996
:10ACD000EF10104601A04880EFF0AF8809C5BB0C0B
:10ACE00005017D55448089441F0440420F003729E7
:10ACF0001144232099000F00F00F832709009D8B3A
:10AD0000638A970005457D14EFF0CFD87DF0D1BF61
:10AD10008544D9BF0145F9B7B727114423A00700DF
:10AD20000F00F00F014582803881FD573EC61F0499
:10AD300040420F00B7241144DC40858B91EF8547DA
:10AD40009CC80F00F00F02C6B72711449C4799C357
:10AD5000FD573EC63245348105457D14EFF08FD353
:10AD600061FCFD573EC6CDB73882FD573EC602C8CE
:10AD700002CA02CC02CE6308050E044585C45845BC
:10AD80003B19071C5821BB77070210412A8414087D
:10AD90008D451F05303EA300EFE03FFE2AC6B247B7
:10ADA00081C7B2473E853482104074088D451F0527
:10ADB000483EA300EFE07FFC2AC6B247FDF35020D7
:10ADC000540889451F05083EA300EFE01FFB2AC673
:10ADD000B247E1FB503034088D451F05183EA300F3
:10ADE000EFE0BFF92AC6B247CDFF372711441C2830
:10ADF000724683260736B397C700D58F2320F736D0
:10AE00000F00F00F0147A6871F06D04804115444D5
:10AE100089826360D704372611445C426247D17649
:10AE2000FD160D8BF58F9BA7E71C5247C59B1D8B0D
:10AE30009BA7E702424793F7F7E07D8B9BA7E708C4
:10AE400093E717005CC20F00F00FF93D2AC6B24726
:10AE500089BF8C43B306C7008A068CC20F00F00F6F
:10AE6000050791076DB7FD5735BF37471144832755
:10AE700007B3E176FD168589F58F9BA7B71E13757D
:10AE8000F53F93F707C0C98F2328F7B20F00F00FE3
:10AE9000032547B31D8911C208C23335A000828043
:10AEA00028802A84EFE0FFEB11C93B170501B74763
:10AEB000114483A747B11CC001452480B747114402
:10AEC00083A707B1CDBF0545CDBF1881680002C675
:10AED000C13F854719E1B247858B3E851481488281
:10AEE000FD572EC6AA843ECCEFE0BFE7B24502CEA6
:10AEF0002A8991C53B8605010144FD5719A00144EB
:10AF000081473ECCE24789C7624544820544CDBFB4
:10AF10000146A2852685913F19C17D55FDB775373C
:10AF20006DFD6317090409491F07001B0000B727BF
:10AF300011443E971C43E176FD16F58F9BA7871EB3
:10AF400093F6F43F93F707C0D58FB7061000D58F5F
:10AF50001CC30F00F00F7008A2852685393755DD18
:10AF60007245330525413335A0003305A04071BF3C
:10AF700005491F07041B00005DBF4882FD572EC610
:10AF80002A843ECCEFE0FFDDB2452A8991C5BB861D
:10AF900005018144FD5719A0814481473ECCE24719
:10AFA00091C7E2473E8544828544C5BF393FFD577E
:10AFB00075F90146A68522854D3D814765D5630318
:10AFC0000906BB1719019F07041B0000372711440E
:10AFD000BA97884361777D17798D1B25951E137469
:10AFE000F43F137505C0418D1F07FFFFEFFF798DFB
:10AFF00088C30F00F00F1F0440420F00F9351DC534
:10B0000005457D14EFF00FA975F8FD573ECCE247DA
:10B01000C9FB680802CE693501E5F247898BD9D3AF
:10B02000FD5749B79F07001B00004DB78147F9BF87
:10B03000B7371144984B9377E7FF19C1936717000F
:10B04000373711441CCB0F00F00F82803881FD5739
:10B050003EC21F0440420F00B734114483A7440886
:10B06000858B85EBFC4093E717003EC4FCC00F00C6
:10B07000F00F02C237371144832787081C5F585FDF
:10B08000D98FB337F000B307F0403EC29247124564
:10B09000348105457D14EFF0EF9F69F0E1BF5881E1
:10B0A000FD573EC61F04102700000549B734114460
:10B0B0009149EFE01FCBFD576314250323AA240712
:10B0C0000F00F00FF85CFD57318B630B370183A73E
:10B0D0000408819F938767F5B337F000B307F0400A
:10B0E0003EC6B24781CB05457D14EFF0AF9A71F0B3
:10B0F0007D5554810145F5BF1880EFE09FC6BB1C0C
:10B10000050137371144832607081306A00A814733
:10B11000819E639DC60028DF0F00F00F7C5F93F7D0
:10B120000703C11793B71700B307F0403E8514809B
:10B13000FD57EDBF9307000A6305F60263E9C700F8
:10B1400093060005BB1506209306000229A8930765
:10B15000100A6303F6049306200A6306D6007D55A1
:10B1600082809306000A37361144584A8177FD17CA
:10B17000F98F85899BA5B722C177FD170589ED8FCA
:10B180009BA7A7207D753D05E98F9BA7D7085CCAC3
:10B190000F00F00F014582809306100AE9B73B6368
:10B1A0000502BB0B05027D5582800547B737114468
:10B1B000DC4BE19BD98F3B1305021F07FFFFF3FF19
:10B1C000F98F373711445CCB0F00F00F01458280B7
:10B1D0001D47E9DDC9BF39C5B73611449C4E18314A
:10B1E00093F7F7FD058B9BA7E70A3821BD9B058BDD
:10B1F0009BA7E7083831DD9B058B9BA7E706582105
:10B20000ED9B058B9BA7E7045831F59B058B9BA70E
:10B21000E7021821F99B058BD98F9CCE0F00F00F08
:10B22000014582807D55828005E1373711441C4BF2
:10B23000860593F5E53F93F707C0DD8D0CCB0F0036
:10B24000F00F81473E858280FD57BB1EF5013737E1
:10B2500011441C4B93F5F53FF9BF4881FD573EC2A1
:10B2600002C402C6C5CDD84119CF3289AE842A8620
:10B2700074008D451F05783EA300EFE01FB02AC281
:10B28000924781C792473E854481B02034008D4566
:10B290001F05603EA300EFE05FAE2AC29247FDF3B8
:10B2A000BC20014591E3883063140900EFF05FD8BA
:10B2B0002244B2470D881A04FD8B136414001B242A
:10B2C000F410B737114423A287080F00F00FEFF0F6
:10B2D000FFD72AC29247DDF7BC20CDD763150900FE
:10B2E0000545EFF0FFD4A2471374F4F31F07FFE006
:10B2F000FFFF8D8B1B24F40CB247798CFD8B1B2434
:10B30000F41013641400B737114423A287080F0008
:10B31000F00FEFF0BFD32AC29247ADB7FD57A5B7E4
:10B32000BB7705049F07000400123E950A050CC177
:10B330000F00F00F30C10F00F00F014582807D55E6
:10B34000828001458280014582803B73050491C55E
:10B350000947BB8205027D5582800147B716004828
:10B3600003A6061806058D47B397A70093C7F7FFF6
:10B37000F18F3317A700D98F23A0F6180F00F00F15
:10B3800001458280014582803B78050437170048DB
:10B390008326072285473395A700558D2320A722B2
:10B3A0000F00F00F014582807D55828031E17D558F
:10B3B000A9C13B1016109841B717004823A0E762B7
:10B3C0000F00F00FD84123A2E7620F00F00F98455D
:10B3D00023A4E7620F00F00FD84523A6E7620F0011
:10B3E000F00F054723A0E7600F00F00F01458280B2
:10B3F0007D5582803B7605049F07900500123E959F
:10B400000A050CC10F00F00F014582807D55828036
:10B410001880A92805E13757A000832687749C422D
:10B4200093E747009CC2032787741C4393E72700D8
:10B430001CC314801F0580110080E5BFB757A00012
:10B4400083A68774054698421367170098C2FD5675
:10B450003E87832787749C439183858B6387C700CE
:10B46000FD16E5FA0145814582800DA01880EF00A8
:10B47000B04509C9EF0050459F074857A00088C351
:10B48000014514801F0580110080E5BF9F074857C4
:10B49000A0009C438C47C8438280BB75050389C9C3
:10B4A0009F074C57A0001B85A7040CC10145828053
:10B4B000370500800505828028812A842EC632C483
:10B4C00036C23AC0EF0070349F074C57A0009B87EC
:10B4D00087049C4399CB924689CA03A3070002477D
:10B4E0002246B2452285208102831F054710008035
:10B4F00024819F074C57A0009B87A7049C4303A36C
:10B50000C70002839F074C57A0009B87A7049C435A
:10B5100003A3070102839F074C57A0009B87A70442
:10B520009C4381C703A3870002831F054710008047
:10B53000828009C6FD571CC2014582803705008004
:10B54000050582809F077457A0003E9514211307BC
:10B55000E003BBF306039F079C26A300B69798233E
:10B5600018C2014582809F075857A0001B85A70479
:10B5700023200500014582809F076857A0001B8596
:10B58000A704184185891C47F99BCD8F1CC7828071
:10B590009F076857A0001B85A7041C410145FC4379
:10B5A000858B1CA282809F076857A0001B85A7047B
:10B5B0001C410145FC438583858B1CA282809F072B
:10B5C0006857A0001B85A7041C410145FC43819FCF
:10B5D000858393C71700858B1CA282809F076857BD
:10B5E000A0001B85A7041C410145FC438D83858B6E
:10B5F0001CA282809F076857A0001B85A70419E240
:10B600000145828018417C43858BF5FB850583C706
:10B61000F5FF7D16219E5CC3DDB71F076857A000AC
:10B6200081471B05A70463C4C7003E85828014417F
:10B63000F842218B7DFBD4423387F500850714A3A4
:10B64000DDB79F07A026A3009B87B70403A30700CD
:10B650006303030002831F054710008082809F0759
:10B660006857A0009B87A704984393F635005C5366
:10B67000CD9B9BA7D704F19B93763600D58F93E79C
:10B6800007015CD39F077457A000AA978CA39F075C
:10B690007857A0003E9510A182803B6306043705D1
:10B6A00000800505828018809F077457A000AA9724
:10B6B0008C23019E6D37014514803B6306043705DA
:10B6C00000800505828018809F077857A000AA9700
:10B6D000B2859023819D613701451480A1C14880C6
:10B6E00092053374B6022A89B354B6021A0433544D
:10B6F000B402854551359F076857A0009B872705F1
:10B700009C4313F7F40FA19C98CBA180C4C781453B
:10B710004A851374F403C0CB4080B9BD82809F0773
:10B720006857A0001B85A70418418D891C47CD9B35
:10B730009BA7B7041CC782809F076857A0001B8582
:10B74000A704184185891C4793F7F7F79BA7B70E05
:10B750001CC782809F076857A0001B85A70418415B
:10B7600085895C57E99BCD8F9BA5B7044CD7828018
:10B770009F076857A0001B85A70414419C4E3BF708
:10B78000050E3727A300130747669B05B7049841AA
:10B790000287058ADD9B9BA7C7069CCE8280058A0F
:10B7A000ED9B9BA7C704D5BF058AF99BD18FF5B741
:10B7B000058AF59B9BA7C702CDB718803336C0001A
:10B7C000B5457D370145148018803336C000B1453A
:10B7D00045370145148018803336C0009145493FF4
:10B7E0000145148018803336C00089455137014522
:10B7F00014809F076857A0001B85A70418418589FE
:10B800001C4793F7F7FD9BA7B70A1CC782809F07C9
:10B810006857A0001B85A704184185891C47BD9B5C
:10B820009BA7B7081CC7828028802A843B87050114
:10B8300081C5BB8205022480208065BF8545553FB8
:10B84000854522852080E1B76D378145DDBF388190
:10B850004C22B2842A84E135CC302285F13DEC20A3
:10B860002285D9378C4022852EC6EF00C07BB24599
:10B870002A862285A535014534819F076857A00097
:10B880001B85A704184185893C4BF99BCD8F3CCB88
:10B8900082805881B684131925009F06F426A300E0
:10B8A000AE89B38526018C4194429F076857A0005A
:10B8B000338627010CC294C3CC209F076457A00095
:10B8C000AA973AC6238007002A84EFF05FE5CC30C0
:10B8D00022859D35EC202285813F81452285713F5F
:10B8E0008C4022852EC4EF000074A2452A86228552
:10B8F000EFF0DFDE2945EFE0FF998545054622851B
:10B90000EFF0FFD59F075857A0003247CA9723A0F2
:10B9100037018545BB01070381452285EFF09FE391
:10B92000014554811F05903EA300828019C59F07E1
:10B930007C57A00088C3014582803705008005053B
:10B9400082809F077C57A00023A0070001458280CA
:10B950009F077C57A00088438280B747A30083A736
:10B9600087F299C71F078057A0001CC3014582803A
:10B970001F050012008082809F078057A00023A02F
:10B9800007008280B757A00083A707781F075A5A7D
:10B990005A5A98C782809F078857A00088438280A0
:10B9A0009F078457A00088C38280F9B77DB738808D
:10B9B000B757A00083A607789304107D3E8498565D
:10B9C0001367170098D6032704781C578583858B47
:10B9D00099CF404BEF0080739307803E2A86B335A2
:10B9E000F40281463305F402EFC05FBB3480FD14DE
:10B9F00089C40545EFE01F8AF9B70145C5BFB757B0
:10BA0000A00003A707785C4793E717005CC7828014
:10BA10001880F537B757A00003A707781C4BF99B90
:10BA20001CCB14804880AA84EF00406E89E437055F
:10BA30000080050544803304950233599402EF00D9
:10BA4000E06CE316A9FE3B6AF4FF9F078857A0004D
:10BA50003759A00084C3832709789F045A5A5A5A39
:10BA6000137404F084C36D3783270978984B1367E8
:10BA7000470098CB984B1377F7FB98CB984B1367FD
:10BA8000870398CBC8431375F50F498CC0C384C78F
:10BA900001454DB728812AC6A53F32453754A0003D
:10BAA00005E1032704781C4B93F7F7F71CCB813F84
:10BAB000032704781C4B93E717001CCB2081D9B5D2
:10BAC000BB1BF501032704781C4B93E70708F9BF5C
:10BAD0001F05A83EA30082805880AD259F099C5772
:10BAE000A00023A0A9001F099057A00085252320AE
:10BAF000A9009F048C57A000B12D88C01F0498573F
:10BB0000A000A92D08C0B92D9F079457A00088C395
:10BB100083A7090099CB8327090081CB9C4091C75B
:10BB20001C4081C719C1014554801F054313008083
:10BB3000E5BFB757A00083A687791F07FFFFFF3F28
:10BB4000798DDC46370700C0F98FC98FDCC682804B
:10BB500058811525AA84192D92471F07FFC7FFFF9B
:10BB60002A8993F7778093E78702F98F3EC285474A
:10BB70003EC402C60144B759A00048009D260146B4
:10BB800085450545592EC92683A749799C43858B50
:10BB900091CF4A85EFE00FF093071400636694009D
:10BBA0001F054413008054813E84C1BF0145E5BF99
:10BBB00048819C212A842E898E0793E717003EC274
:10BBC0009307F5FF3EC402C66137AA840DE548001D
:10BBD000092E854702C063E28702B757A00083A7FA
:10BBE0004779024793352400014698C393C5150051
:10BBF00001452526912E26854481B306F90094221D
:10BC00003307F1008507A30FD7FEF1B718818937F5
:10BC100099476C0005452306F100593F11E10D3F9E
:10BC20001481488636C62A89AE843284C537AA87ED
:10BC3000B24639E936CA4808B98236CE22CC5524F4
:10BC40004A85EFF01FEFA2862686930500040810B0
:10BC5000EF401052FD570DE9137634003336C00023
:10BC60001B068644219E1C100147B755A000931661
:10BC70000701C18263ECC600054685450145712C6C
:10BC8000E124EFF0FFECAA873E85448683A6457940
:10BC9000884391079B86E60488C20507C9BF2881AF
:10BCA0002A84EFF07FE3EFF0BFEA1DE931469F05FC
:10BCB0008013A3004800EFC0DFD948001D240146CF
:10BCC00085450545992C4924B757A00083A7477996
:10BCD0001F07FFFFFF009C43F98F1CC0EFF05FE7D9
:10BCE0002481C167636CF60C98814049B284AE89A7
:10BCF0002A89054AB75AA00025E0B757A00083A6B5
:10BD0000077993D9090113D6F4009C4E0147939506
:10BD10000701C1819BA535218CCE93771600C1CF39
:10BD20009C4A1F06FFF0FFFF3D8BF18F9BA7E7109A
:10BD30009CCA032549000D240325C9009377857FFC
:10BD400091C3892CB757A00083A7C779054798CB23
:10BD5000EFF01FE001450DA01C206380470399C749
:10BD6000BB86E7021F054513008039A00830930504
:10BD70002400EFF0FFE315CD94813820834B34008D
:10BD8000034B44000E07136717003AC252C402C6A1
:10BD9000EFF01FDC4800B122014685450545B52A74
:10BDA000652283A74A799C43B3D77701858BE39BB0
:10BDB00067FB190491B70582050785B73705008031
:10BDC000050582808885AA892E8AB284130400041E
:10BDD00093DAE6003689375BA00099E00145A1A817
:10BDE000EFF01FD729E963F38400268448004AC294
:10BDF00022C456C6FD204E85EFF0BFD3054605454B
:10BE00008545212A912293773400B337F00003252A
:10BE10004B799B8787441408A19F01473686931569
:10BE20000701C18163EAF500A286A2855285EF4031
:10BE3000303419C97D5584859B05E5048C4105077F
:10BE4000910623AEB6FEE1BFA299229A818C71B70A
:10BE500088809377F503130400041D8CAA892E892A
:10BE6000B284B68A637386003284D6862286CA85F7
:10BE70004E85EFF01FDB2A8A05E9818C95C4229953
:10BE8000130B00044E94A68963749B00930900046D
:10BE9000D6864E86CA852285EFF0BFD801E9B384E5
:10BEA00034414E994E94E5F0528584802A8AEDBF44
:10BEB00038822EC6AA843284EFF05FD5B2450DE1F8
:10BEC00048082ECA02CC02CE29282685EFF07FC66C
:10BED00013461400814501458920BD20EFF05FC75E
:10BEE0003482B757A00003A687791C410C45184639
:10BEF00093D63700819E137707F0558F5441AD8359
:10BF00009D8B9D89C607FD1693F6F6039BA7B70880
:10BF10009BA7D71218C61CC28280B757A00003A7E0
:10BF20008779058985891C43058A93F7F7EF9BA7D5
:10BF3000A71093F7F7F79BA7B70EDD9B9BA7C70644
:10BF400093E737001CC38280B757A00003A7877907
:10BF50001C43858BF5FF8280B757A00003A60779A5
:10BF6000370700809F06FF00FFFF1C42D98F135741
:10BF70003500019FF58F9BA7E7109356B5009D8A6A
:10BF80002D8193F707FC1377850333E5D700598D8F
:10BF900008C28280B757A00083A6077913573500DF
:10BFA0001F06FFFF3FC09C42019F2D81F18F9BA781
:10BFB000E72C1F07FFFFF8FFF98F1D899BA7A7201C
:10BFC00037070040D98F9CC2828048814C001305FE
:10BFD000000202C202C402C6EF10D03D224737441D
:10BFE000A300370920004A979304C4EC4C001305C2
:10BFF0001002D8D0EF10103CA24795451305C4ECB1
:10C00000CA97DCD8EFD0BF8D448128802A84EFF016
:10C010007F91AA85228520806FF02FC89F071C3F43
:10C02000A3008CC382809F071C3FA30088438280AB
:10C03000BB130502B7D70044054798DBD8DB8280E5
:10C04000828082805D7106D622D42EDA32DC36DE22
:10C05000BAC0BEC2C2C4C6C631C12AC6EFC01FCB59
:10C06000B2460DCD3754A00058181306F0079305BB
:10C0700000081305047A3ACEEF50602B2A86930706
:10C08000047A3B1205FF982311CBB2972380070057
:10C0900081469305047A0145EFE06FDCB2502254EB
:10C0A000616182806FD01F832E856FD03F83B75729
:10C0B0000040D84F984FC84F8C4FA19D82809F075A
:10C0C000203FA300884382801F05C0040044828073
:10C0D0009F07243FA300884382809F07243FA3003B
:10C0E00088C382801880EFF0BF9E10806FF01F849D
:10C0F0006FF03F85828028802A84EFD0AFFD9F07B4
:10C100002C3FA30080C320806FD04FFD9F072C3FA2
:10C11000A300884382801880EFE03FA410806FE086
:10C120001F9D1F057427A3008280054582801F057F
:10C130009027A30082803705200082801F05FFFF23
:10C140009F0082801F050001004882801F050002B9
:10C15000004882801F054002004882801F050003BE
:10C16000004882801F050004004882809F07303FFE
:10C17000A300884382809F07343FA30088438280C6
:10C18000828001458280828068812A84EFF0BFFE30
:10C190002A89EFF0BFFDAA8993078002054502C6F0
:10C1A0003EC22AC4331485008144375AA000480097
:10C1B000EFF03FD3014685450545EFF01FD6EFF080
:10C1C000BFD883274A799C43E18F91CF4E85EFE01A
:10C1D0006F8C9387140063E624011F0544130080CD
:10C1E0006481BE84E9B70145E5BF48812A890145DC
:10C1F0002E84B284EFF05FF992471947E19B93E7F1
:10C2000017003EC263040900130700059247480067
:10C2100002C493F777809BA7E70693F7F77F3EC2A8
:10C2200002C6EFF01FCC014681450145EFF0FFCE7D
:10C23000EFF09FD185473EC4B757A00083A7477949
:10C240000E041364140022C202C684C34800EFF037
:10C250005FC9014685450145EFF03FCCEFF0DFCEE9
:10C26000448118819377F50F124502C613757580C6
:10C270001B25F5069F07FFC7FFFF7D8D2AC2854757
:10C2800001453EC4EFF05FF04800EFF09FC5014666
:10C2900085450545EFF07FC8EFF01FCBB757A000ED
:10C2A00083A7477988431481B70702006365F502C5
:10C2B000B707400063E1B702188013068002854586
:10C2C0000545EFF09FF20946930510030545EFF091
:10C2D000DFF1014514800145828018807146854553
:10C2E0000545EFF09FF009469305100305451080C2
:10C2F0006FF0BFEF1881680002C6EFF05F9A01E9A6
:10C3000032479F07C84016006314F7007920148154
:10C31000370500800905E5BF78802A898D44954955
:10C32000130A5003B72AA3004A85EFF09FF3137452
:10C33000F50F631F39031374C40911141334140067
:10C340008545F14619E41376F50F13854A7DEFF024
:10C350007FCFEFD03FEC130640068146EFC04FA4DD
:10C360000505EFD03FF305C8FD14DDFC01457480E1
:10C37000631A490113743404791413341400894581
:10C380008946C9B7137414060114133414008D457B
:10C390009306000245BF7D55D9BF688081448D4911
:10C3A0001545EFF07FF72A8A13055003EFF0DFF60B
:10C3B0002A895545EFF05FF62A8463170A0463085B
:10C3C00009020946930510030145EFF01FE219C465
:10C3D00013060002C5450145EFF03FE11305C00318
:10C3E0008504EFD03FE6E39D34FB7D5401A86DF159
:10C3F00081E81F05AC27A300EFF0DFC4228564802D
:10C400001F05C427A300CDBF714685450145EFF048
:10C41000DFDDE30E09FA75B75C459B85B7049441EF
:10C420001C491B86C70493F776001842BB9B070183
:10C430001D8B6314F7029F072058A000D4C3144239
:10C44000D4C7544994CB544194C31445637BD7005B
:10C45000184D94C70145D8CB82801F054613008034
:10C4600082801F054913008082809F073858A000F2
:10C470009C2399CF1F072058A0001843B307B5008D
:10C48000636CF700637AF50063E8B70001458280CA
:10C490001F054013008082803705008005058280DB
:10C4A0007880832A45003769A000AA89032409827D
:10C4B000032A8500EFF03FC863F6AA001F05421368
:10C4C000008074801309098263738A00528483A4F4
:10C4D0004900FD14A294EFF07FC6E36195FE23208E
:10C4E00089000145F9BFB767A00003C7878359EFEB
:10C4F00058822A8413898783EFF09FC86808EFF079
:10C500000FFA51E10C201030F2492EC632C4EFF080
:10C510005FC1AA84EFF07FC12246B245AA86A687F2
:10C5200001476399E604EFF09FC005468145EFF0AF
:10C53000BFEE31E99F073958A000054798A322852F
:10C54000EFF01FF629E13765A000032605824C4075
:10C5500013050582EFF0EFF81DE585472300F9008C
:10C560009F073958A0009C23014591CF1F05411317
:10C57000008011A83E85F10703A847FE63960901D4
:10C58000EFF09FE94DDD5482050761BF01458280D0
:10C5900088812E8AB2852A89B284EFF01FED3DE1B1
:10C5A000EFF03FBE137B3900AA8A63020B06914766
:10C5B000B38767413309694193F9F40F63E7F400E6
:10C5C0009149B389694193F9F90F9F072058A00059
:10C5D000D44311466C004A8502C6EFF0AFFE2A84B0
:10C5E00011ED7C00CE8633866701CE855285EF4003
:10C5F000203811C937050080130445005685EFF037
:10C600009FB82285848111094E9AB384344193F9ED
:10C61000C4FF638109029F072058A000D4434E86BF
:10C62000D2854A85EFF00FFA2A8469F94E9A4E991D
:10C63000B38434410144F9D09F072058A000D4436B
:10C6400011466C004A8502C6EFF0CFF72A84A68611
:10C650007000A6855285EF40A0314DD1370400808F
:10C66000110469BF98812E8AB285AA843289EFF0BD
:10C67000DFDF2A8471E5B38524012685EFF0DFC270
:10C6800093FA34002A8B63880A069147B38757418F
:10C69000B38454419379F90F6367F9009149B389E1
:10C6A000594193F9F90F9F0B2058A00083A64B0026
:10C6B00011466C002685EFF0EFF02A8409ED7C002E
:10C6C000CE865286CE8533855701EF40602A01C958
:10C6D0003704008011045A85EFF03FC095A083A66F
:10C6E000CB00268511466C00EFF08FF62A8491046A
:10C6F0004E9A330939419379C9FF71FC638009026D
:10C700009F072058A000D447D28526854E86EFF09B
:10C710002FF44E9ACE943309394131E1E30D09FAF1
:10C720001F042058A000544011466C002685EFF0ED
:10C730006FE909C95A8537040080EFF01FBA110468
:10C7400022859481CA86528691456800EF40402236
:10C7500075F1544411466C002685EFF06FEF2A8482
:10C760009DBFA8802A892E84EFF03FD021E9B30530
:10C770008900FD7713974501B374F90041CFED8F20
:10C78000056737050080BA97050563199902639715
:10C79000F5022685338A9540116BEFF0FFB02A8CA5
:10C7A00001498149814A9F0B2058A0007D1B631DD0
:10C7B0000A0401446285EFF05FB22285A48003A7DA
:10C7C0000B011B07F704032907009359E900CE8AE0
:10C7D00063663A011387F9FF658F01CB850703A7CD
:10C7E0008B00E3EEE7FC6383E702337969011B29E1
:10C7F000391D0146CA852685EFF08FEB2A845DF945
:10C80000330A5A41D69465B78547D1BF1F044713F1
:10C8100000804DB7E30F99F637050080050579BF15
:10C8200088819F07FC27A3005B95A7062621138A12
:10C830007400135A3A00636F460703590500B28625
:10C84000AE890146B6854E85EF40401AB367990020
:10C850009D8B4A8491CB416ACA94A14A7D1A054BAB
:10C86000634B9400014539A05286935539004E859B
:10C87000EFD09FFF84811376740093553400130525
:10C88000F100EFD01FF97DF58347F1008DC3B307A9
:10C89000244133C75703B3E75703337747014E9714
:10C8A0001423B3F74701B317FB00D58F1CA305046E
:10C8B000219C7DB77D557DBF1880EFE0AF9F108034
:10C8C0006FE02F802181019D8280019D828089C53A
:10C8D0003B7205126FF0DFF47D5582801880952839
:10C8E000BB1305011305900210806FE00F9C654596
:10C8F000E5BF6FC0BFFA18819F07C297A2003EC272
:10C900009F07D298A2003EC648009F07F2C8A20027
:10C910003EC4EFC0DFE53765A0009F07FCFF0000C5
:10C92000930585B0BE95130585B0EFC09FE91481CE
:10C930001880EFD0BFE61F05B80B0000EFD09F9521
:10C94000372700408327071193E747002328F71074
:10C950001480B7070040C84B058982802880EFF01B
:10C960005FFFBB18050137346E0193050460014574
:10C97000EFF0CFEA6145EFF04FF613050460208039
:10C980006FF06FF737646202930504A00145EFF082
:10C99000EFE813058002EFF04FF4130504A0C5B7CC
:10C9A00028803734004085472322F44A0545EFD0DC
:10C9B0007F8E8D472322F44A37170044832747137D
:10C9C000B7060400D58F232AF7122480B7E7004466
:10C9D00003A787861377F7F81367070323A4E7866F
:10C9E00003A7C7861377F7F81367070223A6E7861E
:10C9F00003A707871377F7F81367070223A8E786CB
:10CA000003A747871377F7F81367070223AAE78678
:10CA100003A787871377F7F81367070223ACE78626
:10CA200003A7C7871377F7F81367070223AEE786D4
:10CA3000828018819F073B58A0009C23A307A10078
:10CA400081EB894605469305F1000145EFD03FC1D2
:10CA500014819F073B58A0009C2389EF18812AC6A8
:10CA6000EFC0CFAAB2452A869306007D014510810A
:10CA70006FD0FFBE82809F073B58A0009C23A9EF88
:10CA80009880AA841F056828A3002E8A0144EFF02D
:10CA90005FFC0149A54A1D4B930B0003A14913D725
:10CAA000C4019377F70F1385070363F4EA00138536
:10CAB0007703920463050A00EFF0BFF711A8E31DA6
:10CAC00009FEE30B64FF63057501EFF09FF605496E
:10CAD0000504E31634FD948082801880EFF07FF720
:10CAE0001F05F831A30010806FF0BFF628802E8458
:10CAF000EFF03FF622858145EFF0FFF71F05F83193
:10CB0000A30020806FF0FFF428812E8432C6EFF05E
:10CB10005FF481452285EFF01FF61F05841FA300F7
:10CB2000EFF03FF3324681453285EFF0DFF41F0529
:10CB3000F831A30020816FF0DFF128829F07443F86
:10CB4000A30023800700930790022306F1009307B8
:10CB50003007A307F1002307F1001C411307A002CF
:10CB6000A306E1003EC85C21782123040100ED17F3
:10CB7000230AF1009307F7FF819FBBFD0702230BF8
:10CB8000E1005C3105443808FD17A30AF100814635
:10CB90003C0010086C0001453ECC22CEEFD05FA0D7
:10CBA0000145EFF00FCA9F073A58A00080A32482E6
:10CBB000230B0100F9B7370700401C473D8993F765
:10CBC000F7F09BA7A7081CC782803880B7070040F2
:10CBD00080471F056C28A30011803D889304140032
:10CBE000A685EFF0BFF013054006EFD0AFE53B039D
:10CBF000040F268530806FF01FFCEFD0DFB6730086
:10CC0000501001A02880B7070004F3B747303764FD
:10CC1000A0001307C4831C431304C48385071CC3EB
:10CC2000C92238559F0704D2A2006305F700552A90
:10CC30003C558297B7070004F3A747301C40FD1707
:10CC40001CC024802880B7070008F3B7473037643A
:10CC5000A0001307C4831C431304C48385071CC3AB
:10CC6000492278559F0704D2A2006305F700952A50
:10CC70007C558297B7070008F3A747301C40FD1783
:10CC80001CC024802880B7070010F3B747303764F2
:10CC9000A0001307C4831C431304C48385071CC36B
:10CCA000892238599F0704D2A2006305F700152A8C
:10CCB0003C598297B7070010F3A747301C40FD1777
:10CCC0001CC024802880B7070020F3B747303764A2
:10CCD000A0001307C4831C431304C48385071CC32B
:10CCE000092278599F0704D2A2006305F700D528CE
:10CCF0007C598297B7070020F3A747301C40FD17E7
:10CD00001CC024802880B7070040F3B74730376441
:10CD1000A0001307C4831C431304C48385071CC3EA
:10CD2000C920385D9F0704D2A2006305F70055288B
:10CD30003C5D8297B7070040F3A747301C40FD17C2
:10CD40001CC024802880B7070080F3B747303764C1
:10CD5000A0001307C4831C431304C48385071CC3AA
:10CD60004920785D9F0704D2A2006305F70095284B
:10CD70007C5D8297B7070080F3A747301C40FD1702
:10CD80001CC024803880EF403067B764A000138750
:10CD9000C4831C4385071CC3EF4090677324203471
:10CDA00089208567FD177D8C0A04229518419F070D
:10CDB000E0CDA2009384C4836306F7001D20229572
:10CDC0001C418297EF4050639C40FD179CC030800F
:10CDD0006F401064732520348567FD177D8D828038
:10CDE00001A01F052084A20082803DC14880032944
:10CDF00045002A841F05C428A300CA85EFF08FA42C
:10CE0000B7070080B1076312F9041F05D828A300F3
:10CE10008964EFF02FA3A1042685EF0030365C4C27
:10CE20002285C1075CCCEF00104C9F075458A0002E
:10CE30009C4381C7A2854A858297A6850945EF0054
:10CE40007034014540806FD0DF8D89649104E9B76B
:10CE5000828028802A841F05342BA300EFF08F9E48
:10CE60002E201F056C2BA300EFF0CF9D1C481F0543
:10CE7000842BA300CC4BEFF0EF9C1C481F059C2B90
:10CE8000A3008C4BEFF00F9C1C481F05B42BA30094
:10CE90008C47EFF02F9B1C481F05CC2BA300CC43E5
:10CEA000EFF04F9A1C481F05E42BA3008C43EFF0D2
:10CEB0006F991C481F05FC2BA30083A5C708EFF042
:10CEC0006F981C481F05142CA300CC4FEFF08F97D0
:10CED0001C481F052C2CA300CC47EFF0AF961C4834
:10CEE0001F05442CA3008C4FEFF0CF951C481F0565
:10CEF0005C2CA30083A58708EFF0CF941C481F0586
:10CF0000742CA30083A54708EFF0CF931C481F059E
:10CF10008C2CA30083A50708EFF0CF921C481F05B7
:10CF2000A42CA300EC47EFF0EF911C481F05BC2C8C
:10CF3000A300AC47EFF00F911C481F05D42CA300B1
:10CF4000EC5FEFF02F901C481F05EC2CA300AC5FAA
:10CF5000EFF04F8F1C481F05042DA300EC5BEFF092
:10CF60006F8E1C481F051C2DA300AC5BEFF08F8D4E
:10CF70001C481F05342DA300EC57EFF0AF8C1C4864
:10CF80001F054C2DA300AC57EFF0CF8B1C481F059D
:10CF9000642DA300EC53EFF0EF8A1C481F057C2D95
:10CFA000A300AC53EFF00F8A1C481F05942DA3007B
:10CFB000EC43EFF02F891C481F05AC2DA300AC43B8
:10CFC000EFF04F881C481F05C42DA300CC5FEFF085
:10CFD0006F871C481F05DC2DA3008C5FEFF08F8648
:10CFE0001C481F05F42DA300CC5BEFF0AF851C4857
:10CFF0001F050C2EA3008C5BEFF0CF841C481F058F
:10D00000242EA300CC57EFF0EF831C481F053C2EC5
:10D01000A3008C57EFF00F831C481F05542EA3006C
:10D02000CC53EFF02F821C481F056C2EA3008C53AD
:10D03000EFF04F811C481F05842EA300EC4FEFF04A
:10D040006F801C481F059C2EA300AC4FEFE09FFF94
:10D050001C481F05B42EA300EC4BEFE0BFFE1C489C
:10D060001F05CC2EA300AC4BEFE0DFFD1F05E42E27
:10D07000A30020806FE01FFD5441B767A000138715
:10D08000078408CB1385078436A36FF09FDC2880C4
:10D090002A841F05142BA300EFE0DFFA22852080ED
:10D0A0006FF09FFD28802A841F05442AA300EFE02B
:10D0B0007FF9228520806FF03FFC28802A841F059D
:10D0C000F829A300EFE01FF8228520806FF0DFFA37
:10D0D00028802A841F05202AA300EFE0BFF62285BE
:10D0E00020806FF07FF928802A841F05902AA300F2
:10D0F000EFE05FF5228520806FF01FF828802A84FA
:10D100001F05702AA300EFE0FFF3228520806FF057
:10D11000BFF628802A841F05E42AA300EFE09FF2CF
:10D12000228520806FF05FF528802A841F05B82AA9
:10D13000A300EFE03FF1228520806FF0FFF328800D
:10D140002A841F05CC29A300EFE0DFEF2285208091
:10D150006FF09FF228802A841F05A029A300EFE02A
:10D160007FEE228520806FF03FF128802A841F0502
:10D170007429A300EFE01FED228520806FF0DFEF20
:10D1800028802A841F056029A300EFE0BFEB2285D9
:10D1900020806FF07FEE28802A841F05E828A300F6
:10D1A000EFE05FEA228520806FF01FED28802A845F
:10D1B0001F050829A300EFE0FFE8228520806FF01B
:10D1C000BFEB28802A841F054029A300EFE09FE7DA
:10D1D000228520806FF05FEA28802A841F05AC2812
:10D1E000A300EFE03FE6228520806FF0FFE8288073
:10D1F0002A841F052829A300EFE0DFE42285208090
:10D200006FF09FE71880EFF0FFBCAA851F0580280C
:10D21000A300EFE03FE301A01880EFF0BFBBAA85B9
:10D220001F05202FA300EFE0FFE101A01F058003F1
:10D23000200082809F075858A0001CC101458280B1
:10D2400028812A841F05C02FA300EFF09F80BB1305
:10D2500004641F05D82FA300EFF0AFFFA947335791
:10D26000F4026800230701003377F702B377F40272
:10D27000130707032306E10093870703A306F100C2
:10D28000EFF02FFD1F05DC2FA300EFF08FFCBB1389
:10D2900004641F058830A300EFF0AFFB24813881C0
:10D2A0002A84AE8411469305800F680002C6EFD031
:10D2B000AFDB19C5AA851F05482FA300EFE09FD853
:10D2C000B2473D8C658C11C41F056C2FA300EFE0A5
:10D2D0007FD7014534816FF0CFF53880AA84EF40C5
:10D2E000B0112A842685EFC0CFDE228530806F40C2
:10D2F000301238802A84EF403010AA842285EFC093
:10D30000EFD92A842685EF40B010228534809F070C
:10D31000483FA3001CC10D4582809F07703FA300BA
:10D32000D44389CE9843814711070326C7FF63077B
:10D33000A6008507E39AF6FE0145828005458280B6
:10D3400028812A844C0013051002EF00B00619E56D
:10D350003247A247BA977D77BA971CC0248138819B
:10D36000AA842E84130510024C00EF00B00409E9D2
:10D370003247A247BA977577BA979CC08D671CC091
:10D3800034813881AA842E84130510024C00EF00EA
:10D39000700209E5A2479CC0B2471CC034811880C6
:10D3A0001305401FEFC01FEA10806FD0DF91188077
:10D3B0001F0540D2A200EF10B03519C51F05902FF0
:10D3C000A30010806FE01FC814806FD0CFC0370556
:10D3D000200082803705800082801880B2872E86E8
:10D3E000BE85EFF0EF9A3335A0003305A0401480DE
:10D3F0009880330AB50093174A01AA84D28991C74D
:10D40000FD79B3793A018567BE990565EF00900211
:10D41000AA8A09C90565EF00F0012A8B01E9568542
:10D42000EF00F00237040080150481A87D7933F9FC
:10D430002401B38424418DE4B38B494163910B04EF
:10D44000B38529414A85EFF0CFB12A840DE1A1E0EF
:10D45000638F0B0081465A86DE855285892035A868
:10D460005686A6854A85EFF05FF72A8471D55685E2
:10D47000EF00E07D5A85EF00807D228594805A86FA
:10D48000DE855285EFF07FF52A8475F155BF814620
:10D490005686A6854A85212045DD2A84C9BF688035
:10D4A0002A89AE89328A99EEEFC0CFC2AA844E860D
:10D4B000D2854A85EFF00F9B2A842685EFC00FC2E4
:10D4C00022856480EFF0DFF22A8479DDD5BF1881F0
:10D4D0004C000D45EF00006E814719E52247B70764
:10D4E0002000BA97938707043E85148128802A84F8
:10D4F0000C594855EFF0BFDA01E98325C411032523
:10D50000841120806FF0BFD9248028819F07F2D238
:10D51000A2003EC29F07DAD2A2003EC448009F0785
:10D52000D6D2A2003EC6EF0090492A8401C91F0549
:10D53000E02FA300EFE01FB122852481EFF03FE749
:10D540001F050030A300FDB7188148414C00EF00D3
:10D55000A07909E5B2452245EFF09FE914814881A1
:10D56000F14778511309C5063EC485472306F100EB
:10D5700023000100A3000100230101004AC29F070C
:10D58000E196783C0144631DF7029F045858A000BF
:10D59000B70700031387D7002A84CD07F1464A86D0
:10D5A000F1451385C403D8D89CC0EF30603C19C93D
:10D5B0001F051C30A30037040080EFE0BFA8110452
:10D5C00022854481F1464A86F14513858400EF3077
:10D5D000203A09C51F055430A300F1BF1304C40845
:10D5E000C1462286C14513858405EF30603809C5E0
:10D5F0001F058C30A300C1B7C1462286C1451385E3
:10D600004402EF30E03609C51F05C030A30065B7FE
:10D61000EFC08FEE2A8401C9AA851F05F430A3004C
:10D62000EFE05FA271BFD0588A8513858403EFC0F5
:10D630004FC72A8411C9AA851F052831A300EFE02E
:10D640007FA0EFC06FF0ADBF90408A851385440086
:10D65000EFC02FC52A842DD5AA851F056C31A300E4
:10D66000EFE05F9E885CEFC08FCBE1BF78519F07F2
:10D67000E196783C6304F7000145828038809F047E
:10D680005858A000885CEFC08FC92A84C840EFC0FA
:10D690000FC9498CEFC04FEB418D34809C2189E745
:10D6A0002320050001458280930700301CC12380A0
:10D6B0000500CDBF288078529F07E196783C014451
:10D6C0006318F702AA871F055858A000AE88930573
:10D6D000450248410148BE8601474146EFC0CFE7B9
:10D6E0002A8419C5AA851F05B031A300EFE09F95D4
:10D6F00022852480288078529F07E196783C014457
:10D700006318F702AA871F055858A000AE88930532
:10D710008505085D0148BE8601474146EFC0CFE35D
:10D720002A8419C5AA851F05FC31A300EFE09F914B
:10D730002285248038802A84EF40004CAA842285E8
:10D74000EFC0CF952A842685EF40804C2285348017
:10D750003880AA84EF40404A2A842685EFC06F971C
:10D76000228530806F40C04A3881AA842E84B14619
:10D77000B14501464800EF3060274C001305100208
:10D78000152905E53245A247B7064000AA977975E5
:10D79000AA977D5563EBF6003387870063E7E600C1
:10D7A0002286A6853E85EFE0BFDE3481C880AA8B45
:10D7B000AE8AB28999EA4E85EFF0DFF7AA8455E97F
:10D7C0003704008015042285C480338AC50093176E
:10D7D0004A01528991C77D7933792A0185673E993B
:10D7E0000565EFF03FF52A8B61DD0565EFF09FF4ED
:10D7F0002A8C09E55A85EFF0BFF5D9B7FD74B3F46B
:10D800009A00338D9A4063170D02B30C494163921D
:10D810000C04B30599402685EFE0BFF42A8415E196
:10D8200063110D04638F0C0081466686D285628584
:10D83000B53F35A86A86DA852685EFE07FD52A844C
:10D8400069D55A85EFF0DFF06285EFF07FF025D4DF
:10D850009DBF6686E2855285EFE09FD32A8475F1ED
:10D860004DBF81466A86A6855A85893745DD2A845B
:10D87000C9BF4E86DE855685EFE0DFDE2A840DE1E6
:10D8800037062000CE865696CE852685EF30400E90
:10D890002A8419E54E86DE852685EFB04FC52A8499
:10D8A0002685EFF0FFEA05B73881AA842E84B146B9
:10D8B000B14501464800EF3060134C0013051002DB
:10D8C000D52C05E5B247A245370740007D55BE95EA
:10D8D000F977BE95636BB700B38785006367F70080
:10D8E000854622862685EFF07FEC3481288302C4AA
:10D8F00002C602C82DC92A842C00130510025D2C13
:10D900003DE1F1452285EFF03FE631ED3247144C21
:10D91000B70720001F062FBA458FBA976387C60442
:10D920008C439F0633F37C4B6391D5048C4793065D
:10D930000010639CD50283A6471285453ECC938692
:10D9400006303ECE2ECA36D036D202D432D6B707F3
:10D95000400063EAE700369763E7E700F1454808CF
:10D96000EFF09FF419C1014509A8F1452285EFF0B8
:10D97000BFDF75F908403B7CF502248318803D2207
:10D980001080E9A8188101452EC6152AB2452E85BA
:10D99000EFF0DFFE10816FD00FB35884B2862A8972
:10D9A000AE8432842E86AA851F054832A300EFE09C
:10D9B0006FE9EFB03FF29F07C058A0009823AA89F3
:10D9C00021E3054798A32300210326D2EFC06FFE71
:10D9D0002AD4081022D6D528130600028145081043
:10D9E00002C802CA02CC02CEEFA0DFFB22DAF32784
:10D9F00010343EDC8A8768003EC6212208101522BA
:10DA00009F07C458A0009C4391C3829789658D05E8
:10DA10000945EFF03FF74E85EFB05FEC54849F0768
:10DA2000783FA30003A30700630503001386B0FF3C
:10DA3000028318818547A307F1008347F100819F86
:10DA4000EDFF14819306C00F1F06BC3FA300930592
:10DA5000C00F1F05C858A0006F2090713747A30062
:10DA60009307C7FB83D7870D8966138606041307C0
:10DA7000C7FB6389C702636CF6008DC785066383A5
:10DA8000D7029F07AFBEADDE2324F70E8280A166CA
:10DA900085066389D7009F06F0F000006384D700F5
:10DAA0009166E9BF9F07ADDEADDEF9BF9F07BC3FC2
:10DAB000A300238D070C239CA70C6FF0BFF89F07D2
:10DAC000BC3FA300238DA70C828018802A861F05E7
:10DAD000BC3FA300C146C1451305450AEF2050696C
:10DAE00010806FF03FF618802A8693060009930590
:10DAF00000091F05BC3FA300EF20906710806FF066
:10DB00007FF419CD18802A861F05BC3FA300D1469B
:10DB1000D14513050509EF20B06510806FF09FF225
:10DB2000828058499F07BC3FA30023A6E708184DF1
:10DB3000D8CB6FF03FF14880EFF04FEF18419F07CF
:10DB40004BA5874B6315F7062A84EFF02FEE2A8941
:10DB50004624EFF0AFED14403767A0009307479CD1
:10DB600094C354401303479CD4C3144494C77424EF
:10DB7000D4C73BEF06101307479C8147CA9441481E
:10DB80001B86F406144293851700AA9714CB9B06B4
:10DB9000B30883284600902641071B26161190C61D
:10DBA000FC379CA6AE87E39D05FD014544803735D3
:10DBB0000080EDBFBDC13767A0009307479CD047E9
:10DBC0001307479C814763E8C7023881AA8468002D
:10DBD0002E8402C6EFF00FE619C9B24789CB014780
:10DBE000BE869042A1076391C402DC4295E31F0503
:10DBF00003300080348185079B06F70803C8860040
:10DC00006301A802819FC1B70507E31BE5FCC5B707
:10DC1000054718A05CC00145F1BF1F050230008018
:10DC20008280238005009C420145DCC19C46A18383
:10DC30009CC5828028802A848D2B1C4199C7B523DE
:10DC400003230500228520800283014524801DC511
:10DC500038802A84EFF0AFF7AA84EFF0AFF763655E
:10DC60009400AA94636B940089235C4199C7352B77
:10DC700003234500228530800283348082801F0583
:10DC8000D45AA00082803881AA84680002C6EFF0CE
:10DC90002FEB09C92A841F057032A300EFE08FBA69
:10DCA000228534811305C006EFF0DFF888C02A868C
:10DCB00011E91F05A432A30037040080EFE08FB8FC
:10DCC0001504F9BF32459305C006EFF00FF12A8421
:10DCD00061D91F05DC32A300EFE0CFB68840EFF03A
:10DCE0001FF723A004006DBF9DCD28822A846808F9
:10DCF0002EC602CEEFF0AFE1B24509E51F050230B6
:10DD000000802482F247FDDB0147BE86A10703A6FF
:10DD100087FF6316C400C822EFF0DFE9DDB705070F
:10DD2000E315E5FEE1BF1F050230008082805881C7
:10DD30002A84AE8928006C00328902C402C6EFF042
:10DD40004FE41DE5B2476376F4028324090095C0D1
:10DD50003387840063F4E700B384874022454E860E
:10DD6000A68522952AC4EFF04FE719E123209900F8
:10DD700054811F0542300080E5BF28819F07D45A97
:10DD8000A0009C23014499CB6C00280002C402C669
:10DD9000EFF02FDF01E5B24775743E9422852481B0
:10DDA000388102C202C402C69F072DA5874BAE84EC
:10DDB00032846311F502B70720003EC49307007850
:10DDC0003EC68347410081EFA2479CC0B2471CC0BA
:10DDD000014529A04C00EFF03FF165D5348123A027
